{
	"data": {
		"bytecode": {
			"linkReferences": {},
			"object": "609d61002f600b82828239805160001a6073146000811461001f57610021565bfe5b5030600052607381538281f30073000000000000000000000000000000000000000030146080604052600436106056576000357c0100000000000000000000000000000000000000000000000000000000900463ffffffff168063fea24e5f14605b575b600080fd5b818015606657600080fd5b50606d606f565b005b5600a165627a7a723058209661ef2a0ac95fd482e7f8604a396f73b5886449097e513231bcbb5c516516530029",
			"opcodes": "PUSH1 0x9D PUSH2 0x2F PUSH1 0xB DUP3 DUP3 DUP3 CODECOPY DUP1 MLOAD PUSH1 0x0 BYTE PUSH1 0x73 EQ PUSH1 0x0 DUP2 EQ PUSH2 0x1F JUMPI PUSH2 0x21 JUMP JUMPDEST INVALID JUMPDEST POP ADDRESS PUSH1 0x0 MSTORE PUSH1 0x73 DUP2 MSTORE8 DUP3 DUP2 RETURN STOP PUSH20 0x0 ADDRESS EQ PUSH1 0x80 PUSH1 0x40 MSTORE PUSH1 0x4 CALLDATASIZE LT PUSH1 0x56 JUMPI PUSH1 0x0 CALLDATALOAD PUSH29 0x100000000000000000000000000000000000000000000000000000000 SWAP1 DIV PUSH4 0xFFFFFFFF AND DUP1 PUSH4 0xFEA24E5F EQ PUSH1 0x5B JUMPI JUMPDEST PUSH1 0x0 DUP1 REVERT JUMPDEST DUP2 DUP1 ISZERO PUSH1 0x66 JUMPI PUSH1 0x0 DUP1 REVERT JUMPDEST POP PUSH1 0x6D PUSH1 0x6F JUMP JUMPDEST STOP JUMPDEST JUMP STOP LOG1 PUSH6 0x627A7A723058 KECCAK256 SWAP7 PUSH2 0xEF2A EXP 0xc9 0x5f 0xd4 DUP3 0xe7 0xf8 PUSH1 0x4A CODECOPY PUSH16 0x73B5886449097E513231BCBB5C516516 MSTORE8 STOP 0x29 "
		},
		"gasEstimates": {
			"creation": {
				"codeDepositCost": "31400",
				"executionCost": "infinite",
				"totalCost": "infinite"
			},
			"external": {
				"doGenericStuff()": "infinite"
			}
		},
		"methodIdentifiers": {
			"doGenericStuff()": "fea24e5f"
		}
	},
	"abi": [
		{
			"constant": false,
			"inputs": [],
			"name": "doGenericStuff",
			"outputs": [],
			"payable": false,
			"stateMutability": "nonpayable",
			"type": "function"
		}
	]
}