{
	"data": {
		"bytecode": {
			"linkReferences": {},
			"object": "6080604052606460045561627060055534801561001b57600080fd5b50604051604080610c6e8339810160405280516020909101516100463364010000000061007e810204565b60098054600160a060020a0393841660006101000a908102858202199283161790925560068054939094169091029116179055610135565b610096600382640100000000610a326100cf82021704565b80600160a060020a03167f6ae172837ea30b801fbfcdd4108aa1d5bf8ff775444fd70256b44e6bf3dfc3f660405160405180910390a250565b6000600160a060020a031681600160a060020a0316141515156100f157600080fd5b600182600001600083600160a060020a0316600160a060020a0316815260200190815260200160002060006101000a81548160ff0219169083151502179055505050565b610b2a806101446000396000f3006080604052600436106100cf5763ffffffff7c0100000000000000000000000000000000000000000000000000000000600035041663095ea7b3811461010b57806318160ddd1461014957806323b872dd146101715780632b1ba9f8146101a257806339509351146101df57806340c10f191461020657806370a082311461022d5780638e2ea3aa1461024e578063983b2d56146102665780639865027514610289578063a457c2d71461029e578063a9059cbb146102c5578063aa271e1a146102ec578063dd62ed3e1461030d575b600954604051600160a060020a03600061010081900a909304169136908237602081368385600019f4806000811461010657602083f35b602083fd5b34801561011757600080fd5b5061013260048035600160a060020a03169060200135610337565b604080519115151515825251602090910181900390f35b34801561015557600080fd5b5061015e6103ca565b6040805191825251602090910181900390f35b34801561017d57600080fd5b50610132600160a060020a0360048035821691602091820180359091169101356103d0565b3480156101ae57600080fd5b506101b76104aa565b6040518082600160a060020a0316600160a060020a0316815260200191505060405180910390f35b3480156101eb57600080fd5b5061013260048035600160a060020a031690602001356104c1565b34801561021257600080fd5b5061013260048035600160a060020a031690602001356105a9565b34801561023957600080fd5b5061015e600160a060020a03600435166105d2565b34801561025a57600080fd5b506101b76004356105f2565b34801561027257600080fd5b50610287600160a060020a0360043516610623565b005b34801561029557600080fd5b50610287610643565b3480156102aa57600080fd5b5061013260048035600160a060020a0316906020013561064e565b3480156102d157600080fd5b5061013260048035600160a060020a031690602001356106af565b3480156102f857600080fd5b50610132600160a060020a03600435166106bc565b34801561031957600080fd5b5061015e60048035600160a060020a039081169160200135166106d5565b600080600160a060020a031683600160a060020a03161415151561035a57600080fd5b600160a060020a03338116808216600090815260016020808301918252818101808420898716968716855290925291208590556040805186815290517f8c5be1e5ebec7d5bd14f71427d1e84f3dd0314c0f7b2291e5b200ac8c7c3b925929190910181900390a350600192915050565b60025490565b60006001600085600160a060020a0316600160a060020a03168152602001908152602001600020600033600160a060020a0316600160a060020a0316815260200190815260200160002054821115151561042957600080fd5b600160a060020a038085168116600090815260016020808301918252810180832033851690941683529290522054610467908363ffffffff61070716565b600160a060020a0380861681166000908152600160208083019182528101808320338516909416835292905220556104a0848484610720565b5060019392505050565b60075460006101000a9004600160a060020a031681565b600080600160a060020a031683600160a060020a0316141515156104e457600080fd5b600160a060020a033381168116600090815260016020808301918252810180832087851690941683529290522054610522908363ffffffff61085c16565b600160a060020a033381168082166000818152600160208083018281528082018085208c89169889168087529083528186209990995594845291825283832096835295905220546040805191825251929391927f8c5be1e5ebec7d5bd14f71427d1e84f3dd0314c0f7b2291e5b200ac8c7c3b925929190910181900390a350600192915050565b60006105b4336106bc565b15156105bf57600080fd5b6105c98383610877565b50600192915050565b600160a060020a0390811616600090815260208082018281520190205490565b60088181548110151561060157fe5b906000526020600020016000915054906101000a9004600160a060020a031681565b61062c336106bc565b151561063757600080fd5b6106408161094b565b50565b61064c33610995565b565b600080600160a060020a031683600160a060020a03161415151561067157600080fd5b600160a060020a033381168116600090815260016020808301918252810180832087851690941683529290522054610522908363ffffffff61070716565b60006105c9338484610720565b60006106cf60038363ffffffff6109df16565b92915050565b600160a060020a0391821682166000908152600160208083019182528101808320938516909416825291909152205490565b60008083831115151561071957600080fd5b5050900390565b60008084600160a060020a0316600160a060020a0316815260200190815260200160002054811115151561075357600080fd5b6000600160a060020a031682600160a060020a03161415151561077557600080fd5b600160a060020a038084161660009081526020808201828152019020546107a2908263ffffffff61070716565b600160a060020a038085168116600090815260208082018281529081018083209490945585831690921681529081905220546107e4908263ffffffff61085c16565b60008084600160a060020a0316600160a060020a031681526020019081526020016000208190555081600160a060020a031683600160a060020a03167fddf252ad1be2c89b69c2b068fc378daa952ba7f163c4a11628f55a4df523b3ef836040518082815260200191505060405180910390a3505050565b600082820183811015151561087057600080fd5b9392505050565b81600160a060020a031660001415151561089057600080fd5b6002546108a3908263ffffffff61085c16565b600255600160a060020a038083161660009081526020808201828152019020546108d3908263ffffffff61085c16565b60008084600160a060020a0316600160a060020a031681526020019081526020016000208190555081600160a060020a03166000600160a060020a03167fddf252ad1be2c89b69c2b068fc378daa952ba7f163c4a11628f55a4df523b3ef836040518082815260200191505060405180910390a35050565b61095c60038263ffffffff610a3216565b80600160a060020a03167f6ae172837ea30b801fbfcdd4108aa1d5bf8ff775444fd70256b44e6bf3dfc3f660405160405180910390a250565b6109a660038263ffffffff610a9816565b80600160a060020a03167fe94479a9f7e1952cc78f2d6baab678adc1b772d936c6583def489e524cb6669260405160405180910390a250565b600080600160a060020a031682600160a060020a031614151515610a0257600080fd5b50600160a060020a0390811616600090815290810160208083019182520181205460ff6101009290920a90041690565b6000600160a060020a031681600160a060020a031614151515610a5457600080fd5b600182600001600083600160a060020a0316600160a060020a0316815260200190815260200160002060006101000a81548160ff0219169083151502179055505050565b6000600160a060020a031681600160a060020a031614151515610aba57600080fd5b600082600001600083600160a060020a0316600160a060020a0316815260200190815260200160002060006101000a81548160ff02191690831515021790555050505600a165627a7a7230582054af3f7dd14e238d99ca6ac5961550e6d8a484d837db2d08699974906ce5c15f0029",
			"opcodes": "PUSH1 0x80 PUSH1 0x40 MSTORE PUSH1 0x64 PUSH1 0x4 SSTORE PUSH2 0x6270 PUSH1 0x5 SSTORE CALLVALUE DUP1 ISZERO PUSH2 0x1B JUMPI PUSH1 0x0 DUP1 REVERT JUMPDEST POP PUSH1 0x40 MLOAD PUSH1 0x40 DUP1 PUSH2 0xC6E DUP4 CODECOPY DUP2 ADD PUSH1 0x40 MSTORE DUP1 MLOAD PUSH1 0x20 SWAP1 SWAP2 ADD MLOAD PUSH2 0x46 CALLER PUSH5 0x100000000 PUSH2 0x7E DUP2 MUL DIV JUMP JUMPDEST PUSH1 0x9 DUP1 SLOAD PUSH1 0x1 PUSH1 0xA0 PUSH1 0x2 EXP SUB SWAP4 DUP5 AND PUSH1 0x0 PUSH2 0x100 EXP SWAP1 DUP2 MUL DUP6 DUP3 MUL NOT SWAP3 DUP4 AND OR SWAP1 SWAP3 SSTORE PUSH1 0x6 DUP1 SLOAD SWAP4 SWAP1 SWAP5 AND SWAP1 SWAP2 MUL SWAP2 AND OR SWAP1 SSTORE PUSH2 0x135 JUMP JUMPDEST PUSH2 0x96 PUSH1 0x3 DUP3 PUSH5 0x100000000 PUSH2 0xA32 PUSH2 0xCF DUP3 MUL OR DIV JUMP JUMPDEST DUP1 PUSH1 0x1 PUSH1 0xA0 PUSH1 0x2 EXP SUB AND PUSH32 0x6AE172837EA30B801FBFCDD4108AA1D5BF8FF775444FD70256B44E6BF3DFC3F6 PUSH1 0x40 MLOAD PUSH1 0x40 MLOAD DUP1 SWAP2 SUB SWAP1 LOG2 POP JUMP JUMPDEST PUSH1 0x0 PUSH1 0x1 PUSH1 0xA0 PUSH1 0x2 EXP SUB AND DUP2 PUSH1 0x1 PUSH1 0xA0 PUSH1 0x2 EXP SUB AND EQ ISZERO ISZERO ISZERO PUSH2 0xF1 JUMPI PUSH1 0x0 DUP1 REVERT JUMPDEST PUSH1 0x1 DUP3 PUSH1 0x0 ADD PUSH1 0x0 DUP4 PUSH1 0x1 PUSH1 0xA0 PUSH1 0x2 EXP SUB AND PUSH1 0x1 PUSH1 0xA0 PUSH1 0x2 EXP SUB AND DUP2 MSTORE PUSH1 0x20 ADD SWAP1 DUP2 MSTORE PUSH1 0x20 ADD PUSH1 0x0 KECCAK256 PUSH1 0x0 PUSH2 0x100 EXP DUP2 SLOAD DUP2 PUSH1 0xFF MUL NOT AND SWAP1 DUP4 ISZERO ISZERO MUL OR SWAP1 SSTORE POP POP POP JUMP JUMPDEST PUSH2 0xB2A DUP1 PUSH2 0x144 PUSH1 0x0 CODECOPY PUSH1 0x0 RETURN STOP PUSH1 0x80 PUSH1 0x40 MSTORE PUSH1 0x4 CALLDATASIZE LT PUSH2 0xCF JUMPI PUSH4 0xFFFFFFFF PUSH29 0x100000000000000000000000000000000000000000000000000000000 PUSH1 0x0 CALLDATALOAD DIV AND PUSH4 0x95EA7B3 DUP2 EQ PUSH2 0x10B JUMPI DUP1 PUSH4 0x18160DDD EQ PUSH2 0x149 JUMPI DUP1 PUSH4 0x23B872DD EQ PUSH2 0x171 JUMPI DUP1 PUSH4 0x2B1BA9F8 EQ PUSH2 0x1A2 JUMPI DUP1 PUSH4 0x39509351 EQ PUSH2 0x1DF JUMPI DUP1 PUSH4 0x40C10F19 EQ PUSH2 0x206 JUMPI DUP1 PUSH4 0x70A08231 EQ PUSH2 0x22D JUMPI DUP1 PUSH4 0x8E2EA3AA EQ PUSH2 0x24E JUMPI DUP1 PUSH4 0x983B2D56 EQ PUSH2 0x266 JUMPI DUP1 PUSH4 0x98650275 EQ PUSH2 0x289 JUMPI DUP1 PUSH4 0xA457C2D7 EQ PUSH2 0x29E JUMPI DUP1 PUSH4 0xA9059CBB EQ PUSH2 0x2C5 JUMPI DUP1 PUSH4 0xAA271E1A EQ PUSH2 0x2EC JUMPI DUP1 PUSH4 0xDD62ED3E EQ PUSH2 0x30D JUMPI JUMPDEST PUSH1 0x9 SLOAD PUSH1 0x40 MLOAD PUSH1 0x1 PUSH1 0xA0 PUSH1 0x2 EXP SUB PUSH1 0x0 PUSH2 0x100 DUP2 SWAP1 EXP SWAP1 SWAP4 DIV AND SWAP2 CALLDATASIZE SWAP1 DUP3 CALLDATACOPY PUSH1 0x20 DUP2 CALLDATASIZE DUP4 DUP6 PUSH1 0x0 NOT DELEGATECALL DUP1 PUSH1 0x0 DUP2 EQ PUSH2 0x106 JUMPI PUSH1 0x20 DUP4 RETURN JUMPDEST PUSH1 0x20 DUP4 REVERT JUMPDEST CALLVALUE DUP1 ISZERO PUSH2 0x117 JUMPI PUSH1 0x0 DUP1 REVERT JUMPDEST POP PUSH2 0x132 PUSH1 0x4 DUP1 CALLDATALOAD PUSH1 0x1 PUSH1 0xA0 PUSH1 0x2 EXP SUB AND SWAP1 PUSH1 0x20 ADD CALLDATALOAD PUSH2 0x337 JUMP JUMPDEST PUSH1 0x40 DUP1 MLOAD SWAP2 ISZERO ISZERO ISZERO ISZERO DUP3 MSTORE MLOAD PUSH1 0x20 SWAP1 SWAP2 ADD DUP2 SWAP1 SUB SWAP1 RETURN JUMPDEST CALLVALUE DUP1 ISZERO PUSH2 0x155 JUMPI PUSH1 0x0 DUP1 REVERT JUMPDEST POP PUSH2 0x15E PUSH2 0x3CA JUMP JUMPDEST PUSH1 0x40 DUP1 MLOAD SWAP2 DUP3 MSTORE MLOAD PUSH1 0x20 SWAP1 SWAP2 ADD DUP2 SWAP1 SUB SWAP1 RETURN JUMPDEST CALLVALUE DUP1 ISZERO PUSH2 0x17D JUMPI PUSH1 0x0 DUP1 REVERT JUMPDEST POP PUSH2 0x132 PUSH1 0x1 PUSH1 0xA0 PUSH1 0x2 EXP SUB PUSH1 0x4 DUP1 CALLDATALOAD DUP3 AND SWAP2 PUSH1 0x20 SWAP2 DUP3 ADD DUP1 CALLDATALOAD SWAP1 SWAP2 AND SWAP2 ADD CALLDATALOAD PUSH2 0x3D0 JUMP JUMPDEST CALLVALUE DUP1 ISZERO PUSH2 0x1AE JUMPI PUSH1 0x0 DUP1 REVERT JUMPDEST POP PUSH2 0x1B7 PUSH2 0x4AA JUMP JUMPDEST PUSH1 0x40 MLOAD DUP1 DUP3 PUSH1 0x1 PUSH1 0xA0 PUSH1 0x2 EXP SUB AND PUSH1 0x1 PUSH1 0xA0 PUSH1 0x2 EXP SUB AND DUP2 MSTORE PUSH1 0x20 ADD SWAP2 POP POP PUSH1 0x40 MLOAD DUP1 SWAP2 SUB SWAP1 RETURN JUMPDEST CALLVALUE DUP1 ISZERO PUSH2 0x1EB JUMPI PUSH1 0x0 DUP1 REVERT JUMPDEST POP PUSH2 0x132 PUSH1 0x4 DUP1 CALLDATALOAD PUSH1 0x1 PUSH1 0xA0 PUSH1 0x2 EXP SUB AND SWAP1 PUSH1 0x20 ADD CALLDATALOAD PUSH2 0x4C1 JUMP JUMPDEST CALLVALUE DUP1 ISZERO PUSH2 0x212 JUMPI PUSH1 0x0 DUP1 REVERT JUMPDEST POP PUSH2 0x132 PUSH1 0x4 DUP1 CALLDATALOAD PUSH1 0x1 PUSH1 0xA0 PUSH1 0x2 EXP SUB AND SWAP1 PUSH1 0x20 ADD CALLDATALOAD PUSH2 0x5A9 JUMP JUMPDEST CALLVALUE DUP1 ISZERO PUSH2 0x239 JUMPI PUSH1 0x0 DUP1 REVERT JUMPDEST POP PUSH2 0x15E PUSH1 0x1 PUSH1 0xA0 PUSH1 0x2 EXP SUB PUSH1 0x4 CALLDATALOAD AND PUSH2 0x5D2 JUMP JUMPDEST CALLVALUE DUP1 ISZERO PUSH2 0x25A JUMPI PUSH1 0x0 DUP1 REVERT JUMPDEST POP PUSH2 0x1B7 PUSH1 0x4 CALLDATALOAD PUSH2 0x5F2 JUMP JUMPDEST CALLVALUE DUP1 ISZERO PUSH2 0x272 JUMPI PUSH1 0x0 DUP1 REVERT JUMPDEST POP PUSH2 0x287 PUSH1 0x1 PUSH1 0xA0 PUSH1 0x2 EXP SUB PUSH1 0x4 CALLDATALOAD AND PUSH2 0x623 JUMP JUMPDEST STOP JUMPDEST CALLVALUE DUP1 ISZERO PUSH2 0x295 JUMPI PUSH1 0x0 DUP1 REVERT JUMPDEST POP PUSH2 0x287 PUSH2 0x643 JUMP JUMPDEST CALLVALUE DUP1 ISZERO PUSH2 0x2AA JUMPI PUSH1 0x0 DUP1 REVERT JUMPDEST POP PUSH2 0x132 PUSH1 0x4 DUP1 CALLDATALOAD PUSH1 0x1 PUSH1 0xA0 PUSH1 0x2 EXP SUB AND SWAP1 PUSH1 0x20 ADD CALLDATALOAD PUSH2 0x64E JUMP JUMPDEST CALLVALUE DUP1 ISZERO PUSH2 0x2D1 JUMPI PUSH1 0x0 DUP1 REVERT JUMPDEST POP PUSH2 0x132 PUSH1 0x4 DUP1 CALLDATALOAD PUSH1 0x1 PUSH1 0xA0 PUSH1 0x2 EXP SUB AND SWAP1 PUSH1 0x20 ADD CALLDATALOAD PUSH2 0x6AF JUMP JUMPDEST CALLVALUE DUP1 ISZERO PUSH2 0x2F8 JUMPI PUSH1 0x0 DUP1 REVERT JUMPDEST POP PUSH2 0x132 PUSH1 0x1 PUSH1 0xA0 PUSH1 0x2 EXP SUB PUSH1 0x4 CALLDATALOAD AND PUSH2 0x6BC JUMP JUMPDEST CALLVALUE DUP1 ISZERO PUSH2 0x319 JUMPI PUSH1 0x0 DUP1 REVERT JUMPDEST POP PUSH2 0x15E PUSH1 0x4 DUP1 CALLDATALOAD PUSH1 0x1 PUSH1 0xA0 PUSH1 0x2 EXP SUB SWAP1 DUP2 AND SWAP2 PUSH1 0x20 ADD CALLDATALOAD AND PUSH2 0x6D5 JUMP JUMPDEST PUSH1 0x0 DUP1 PUSH1 0x1 PUSH1 0xA0 PUSH1 0x2 EXP SUB AND DUP4 PUSH1 0x1 PUSH1 0xA0 PUSH1 0x2 EXP SUB AND EQ ISZERO ISZERO ISZERO PUSH2 0x35A JUMPI PUSH1 0x0 DUP1 REVERT JUMPDEST PUSH1 0x1 PUSH1 0xA0 PUSH1 0x2 EXP SUB CALLER DUP2 AND DUP1 DUP3 AND PUSH1 0x0 SWAP1 DUP2 MSTORE PUSH1 0x1 PUSH1 0x20 DUP1 DUP4 ADD SWAP2 DUP3 MSTORE DUP2 DUP2 ADD DUP1 DUP5 KECCAK256 DUP10 DUP8 AND SWAP7 DUP8 AND DUP6 MSTORE SWAP1 SWAP3 MSTORE SWAP2 KECCAK256 DUP6 SWAP1 SSTORE PUSH1 0x40 DUP1 MLOAD DUP7 DUP2 MSTORE SWAP1 MLOAD PUSH32 0x8C5BE1E5EBEC7D5BD14F71427D1E84F3DD0314C0F7B2291E5B200AC8C7C3B925 SWAP3 SWAP2 SWAP1 SWAP2 ADD DUP2 SWAP1 SUB SWAP1 LOG3 POP PUSH1 0x1 SWAP3 SWAP2 POP POP JUMP JUMPDEST PUSH1 0x2 SLOAD SWAP1 JUMP JUMPDEST PUSH1 0x0 PUSH1 0x1 PUSH1 0x0 DUP6 PUSH1 0x1 PUSH1 0xA0 PUSH1 0x2 EXP SUB AND PUSH1 0x1 PUSH1 0xA0 PUSH1 0x2 EXP SUB AND DUP2 MSTORE PUSH1 0x20 ADD SWAP1 DUP2 MSTORE PUSH1 0x20 ADD PUSH1 0x0 KECCAK256 PUSH1 0x0 CALLER PUSH1 0x1 PUSH1 0xA0 PUSH1 0x2 EXP SUB AND PUSH1 0x1 PUSH1 0xA0 PUSH1 0x2 EXP SUB AND DUP2 MSTORE PUSH1 0x20 ADD SWAP1 DUP2 MSTORE PUSH1 0x20 ADD PUSH1 0x0 KECCAK256 SLOAD DUP3 GT ISZERO ISZERO ISZERO PUSH2 0x429 JUMPI PUSH1 0x0 DUP1 REVERT JUMPDEST PUSH1 0x1 PUSH1 0xA0 PUSH1 0x2 EXP SUB DUP1 DUP6 AND DUP2 AND PUSH1 0x0 SWAP1 DUP2 MSTORE PUSH1 0x1 PUSH1 0x20 DUP1 DUP4 ADD SWAP2 DUP3 MSTORE DUP2 ADD DUP1 DUP4 KECCAK256 CALLER DUP6 AND SWAP1 SWAP5 AND DUP4 MSTORE SWAP3 SWAP1 MSTORE KECCAK256 SLOAD PUSH2 0x467 SWAP1 DUP4 PUSH4 0xFFFFFFFF PUSH2 0x707 AND JUMP JUMPDEST PUSH1 0x1 PUSH1 0xA0 PUSH1 0x2 EXP SUB DUP1 DUP7 AND DUP2 AND PUSH1 0x0 SWAP1 DUP2 MSTORE PUSH1 0x1 PUSH1 0x20 DUP1 DUP4 ADD SWAP2 DUP3 MSTORE DUP2 ADD DUP1 DUP4 KECCAK256 CALLER DUP6 AND SWAP1 SWAP5 AND DUP4 MSTORE SWAP3 SWAP1 MSTORE KECCAK256 SSTORE PUSH2 0x4A0 DUP5 DUP5 DUP5 PUSH2 0x720 JUMP JUMPDEST POP PUSH1 0x1 SWAP4 SWAP3 POP POP POP JUMP JUMPDEST PUSH1 0x7 SLOAD PUSH1 0x0 PUSH2 0x100 EXP SWAP1 DIV PUSH1 0x1 PUSH1 0xA0 PUSH1 0x2 EXP SUB AND DUP2 JUMP JUMPDEST PUSH1 0x0 DUP1 PUSH1 0x1 PUSH1 0xA0 PUSH1 0x2 EXP SUB AND DUP4 PUSH1 0x1 PUSH1 0xA0 PUSH1 0x2 EXP SUB AND EQ ISZERO ISZERO ISZERO PUSH2 0x4E4 JUMPI PUSH1 0x0 DUP1 REVERT JUMPDEST PUSH1 0x1 PUSH1 0xA0 PUSH1 0x2 EXP SUB CALLER DUP2 AND DUP2 AND PUSH1 0x0 SWAP1 DUP2 MSTORE PUSH1 0x1 PUSH1 0x20 DUP1 DUP4 ADD SWAP2 DUP3 MSTORE DUP2 ADD DUP1 DUP4 KECCAK256 DUP8 DUP6 AND SWAP1 SWAP5 AND DUP4 MSTORE SWAP3 SWAP1 MSTORE KECCAK256 SLOAD PUSH2 0x522 SWAP1 DUP4 PUSH4 0xFFFFFFFF PUSH2 0x85C AND JUMP JUMPDEST PUSH1 0x1 PUSH1 0xA0 PUSH1 0x2 EXP SUB CALLER DUP2 AND DUP1 DUP3 AND PUSH1 0x0 DUP2 DUP2 MSTORE PUSH1 0x1 PUSH1 0x20 DUP1 DUP4 ADD DUP3 DUP2 MSTORE DUP1 DUP3 ADD DUP1 DUP6 KECCAK256 DUP13 DUP10 AND SWAP9 DUP10 AND DUP1 DUP8 MSTORE SWAP1 DUP4 MSTORE DUP2 DUP7 KECCAK256 SWAP10 SWAP1 SWAP10 SSTORE SWAP5 DUP5 MSTORE SWAP2 DUP3 MSTORE DUP4 DUP4 KECCAK256 SWAP7 DUP4 MSTORE SWAP6 SWAP1 MSTORE KECCAK256 SLOAD PUSH1 0x40 DUP1 MLOAD SWAP2 DUP3 MSTORE MLOAD SWAP3 SWAP4 SWAP2 SWAP3 PUSH32 0x8C5BE1E5EBEC7D5BD14F71427D1E84F3DD0314C0F7B2291E5B200AC8C7C3B925 SWAP3 SWAP2 SWAP1 SWAP2 ADD DUP2 SWAP1 SUB SWAP1 LOG3 POP PUSH1 0x1 SWAP3 SWAP2 POP POP JUMP JUMPDEST PUSH1 0x0 PUSH2 0x5B4 CALLER PUSH2 0x6BC JUMP JUMPDEST ISZERO ISZERO PUSH2 0x5BF JUMPI PUSH1 0x0 DUP1 REVERT JUMPDEST PUSH2 0x5C9 DUP4 DUP4 PUSH2 0x877 JUMP JUMPDEST POP PUSH1 0x1 SWAP3 SWAP2 POP POP JUMP JUMPDEST PUSH1 0x1 PUSH1 0xA0 PUSH1 0x2 EXP SUB SWAP1 DUP2 AND AND PUSH1 0x0 SWAP1 DUP2 MSTORE PUSH1 0x20 DUP1 DUP3 ADD DUP3 DUP2 MSTORE ADD SWAP1 KECCAK256 SLOAD SWAP1 JUMP JUMPDEST PUSH1 0x8 DUP2 DUP2 SLOAD DUP2 LT ISZERO ISZERO PUSH2 0x601 JUMPI INVALID JUMPDEST SWAP1 PUSH1 0x0 MSTORE PUSH1 0x20 PUSH1 0x0 KECCAK256 ADD PUSH1 0x0 SWAP2 POP SLOAD SWAP1 PUSH2 0x100 EXP SWAP1 DIV PUSH1 0x1 PUSH1 0xA0 PUSH1 0x2 EXP SUB AND DUP2 JUMP JUMPDEST PUSH2 0x62C CALLER PUSH2 0x6BC JUMP JUMPDEST ISZERO ISZERO PUSH2 0x637 JUMPI PUSH1 0x0 DUP1 REVERT JUMPDEST PUSH2 0x640 DUP2 PUSH2 0x94B JUMP JUMPDEST POP JUMP JUMPDEST PUSH2 0x64C CALLER PUSH2 0x995 JUMP JUMPDEST JUMP JUMPDEST PUSH1 0x0 DUP1 PUSH1 0x1 PUSH1 0xA0 PUSH1 0x2 EXP SUB AND DUP4 PUSH1 0x1 PUSH1 0xA0 PUSH1 0x2 EXP SUB AND EQ ISZERO ISZERO ISZERO PUSH2 0x671 JUMPI PUSH1 0x0 DUP1 REVERT JUMPDEST PUSH1 0x1 PUSH1 0xA0 PUSH1 0x2 EXP SUB CALLER DUP2 AND DUP2 AND PUSH1 0x0 SWAP1 DUP2 MSTORE PUSH1 0x1 PUSH1 0x20 DUP1 DUP4 ADD SWAP2 DUP3 MSTORE DUP2 ADD DUP1 DUP4 KECCAK256 DUP8 DUP6 AND SWAP1 SWAP5 AND DUP4 MSTORE SWAP3 SWAP1 MSTORE KECCAK256 SLOAD PUSH2 0x522 SWAP1 DUP4 PUSH4 0xFFFFFFFF PUSH2 0x707 AND JUMP JUMPDEST PUSH1 0x0 PUSH2 0x5C9 CALLER DUP5 DUP5 PUSH2 0x720 JUMP JUMPDEST PUSH1 0x0 PUSH2 0x6CF PUSH1 0x3 DUP4 PUSH4 0xFFFFFFFF PUSH2 0x9DF AND JUMP JUMPDEST SWAP3 SWAP2 POP POP JUMP JUMPDEST PUSH1 0x1 PUSH1 0xA0 PUSH1 0x2 EXP SUB SWAP2 DUP3 AND DUP3 AND PUSH1 0x0 SWAP1 DUP2 MSTORE PUSH1 0x1 PUSH1 0x20 DUP1 DUP4 ADD SWAP2 DUP3 MSTORE DUP2 ADD DUP1 DUP4 KECCAK256 SWAP4 DUP6 AND SWAP1 SWAP5 AND DUP3 MSTORE SWAP2 SWAP1 SWAP2 MSTORE KECCAK256 SLOAD SWAP1 JUMP JUMPDEST PUSH1 0x0 DUP1 DUP4 DUP4 GT ISZERO ISZERO ISZERO PUSH2 0x719 JUMPI PUSH1 0x0 DUP1 REVERT JUMPDEST POP POP SWAP1 SUB SWAP1 JUMP JUMPDEST PUSH1 0x0 DUP1 DUP5 PUSH1 0x1 PUSH1 0xA0 PUSH1 0x2 EXP SUB AND PUSH1 0x1 PUSH1 0xA0 PUSH1 0x2 EXP SUB AND DUP2 MSTORE PUSH1 0x20 ADD SWAP1 DUP2 MSTORE PUSH1 0x20 ADD PUSH1 0x0 KECCAK256 SLOAD DUP2 GT ISZERO ISZERO ISZERO PUSH2 0x753 JUMPI PUSH1 0x0 DUP1 REVERT JUMPDEST PUSH1 0x0 PUSH1 0x1 PUSH1 0xA0 PUSH1 0x2 EXP SUB AND DUP3 PUSH1 0x1 PUSH1 0xA0 PUSH1 0x2 EXP SUB AND EQ ISZERO ISZERO ISZERO PUSH2 0x775 JUMPI PUSH1 0x0 DUP1 REVERT JUMPDEST PUSH1 0x1 PUSH1 0xA0 PUSH1 0x2 EXP SUB DUP1 DUP5 AND AND PUSH1 0x0 SWAP1 DUP2 MSTORE PUSH1 0x20 DUP1 DUP3 ADD DUP3 DUP2 MSTORE ADD SWAP1 KECCAK256 SLOAD PUSH2 0x7A2 SWAP1 DUP3 PUSH4 0xFFFFFFFF PUSH2 0x707 AND JUMP JUMPDEST PUSH1 0x1 PUSH1 0xA0 PUSH1 0x2 EXP SUB DUP1 DUP6 AND DUP2 AND PUSH1 0x0 SWAP1 DUP2 MSTORE PUSH1 0x20 DUP1 DUP3 ADD DUP3 DUP2 MSTORE SWAP1 DUP2 ADD DUP1 DUP4 KECCAK256 SWAP5 SWAP1 SWAP5 SSTORE DUP6 DUP4 AND SWAP1 SWAP3 AND DUP2 MSTORE SWAP1 DUP2 SWAP1 MSTORE KECCAK256 SLOAD PUSH2 0x7E4 SWAP1 DUP3 PUSH4 0xFFFFFFFF PUSH2 0x85C AND JUMP JUMPDEST PUSH1 0x0 DUP1 DUP5 PUSH1 0x1 PUSH1 0xA0 PUSH1 0x2 EXP SUB AND PUSH1 0x1 PUSH1 0xA0 PUSH1 0x2 EXP SUB AND DUP2 MSTORE PUSH1 0x20 ADD SWAP1 DUP2 MSTORE PUSH1 0x20 ADD PUSH1 0x0 KECCAK256 DUP2 SWAP1 SSTORE POP DUP2 PUSH1 0x1 PUSH1 0xA0 PUSH1 0x2 EXP SUB AND DUP4 PUSH1 0x1 PUSH1 0xA0 PUSH1 0x2 EXP SUB AND PUSH32 0xDDF252AD1BE2C89B69C2B068FC378DAA952BA7F163C4A11628F55A4DF523B3EF DUP4 PUSH1 0x40 MLOAD DUP1 DUP3 DUP2 MSTORE PUSH1 0x20 ADD SWAP2 POP POP PUSH1 0x40 MLOAD DUP1 SWAP2 SUB SWAP1 LOG3 POP POP POP JUMP JUMPDEST PUSH1 0x0 DUP3 DUP3 ADD DUP4 DUP2 LT ISZERO ISZERO ISZERO PUSH2 0x870 JUMPI PUSH1 0x0 DUP1 REVERT JUMPDEST SWAP4 SWAP3 POP POP POP JUMP JUMPDEST DUP2 PUSH1 0x1 PUSH1 0xA0 PUSH1 0x2 EXP SUB AND PUSH1 0x0 EQ ISZERO ISZERO ISZERO PUSH2 0x890 JUMPI PUSH1 0x0 DUP1 REVERT JUMPDEST PUSH1 0x2 SLOAD PUSH2 0x8A3 SWAP1 DUP3 PUSH4 0xFFFFFFFF PUSH2 0x85C AND JUMP JUMPDEST PUSH1 0x2 SSTORE PUSH1 0x1 PUSH1 0xA0 PUSH1 0x2 EXP SUB DUP1 DUP4 AND AND PUSH1 0x0 SWAP1 DUP2 MSTORE PUSH1 0x20 DUP1 DUP3 ADD DUP3 DUP2 MSTORE ADD SWAP1 KECCAK256 SLOAD PUSH2 0x8D3 SWAP1 DUP3 PUSH4 0xFFFFFFFF PUSH2 0x85C AND JUMP JUMPDEST PUSH1 0x0 DUP1 DUP5 PUSH1 0x1 PUSH1 0xA0 PUSH1 0x2 EXP SUB AND PUSH1 0x1 PUSH1 0xA0 PUSH1 0x2 EXP SUB AND DUP2 MSTORE PUSH1 0x20 ADD SWAP1 DUP2 MSTORE PUSH1 0x20 ADD PUSH1 0x0 KECCAK256 DUP2 SWAP1 SSTORE POP DUP2 PUSH1 0x1 PUSH1 0xA0 PUSH1 0x2 EXP SUB AND PUSH1 0x0 PUSH1 0x1 PUSH1 0xA0 PUSH1 0x2 EXP SUB AND PUSH32 0xDDF252AD1BE2C89B69C2B068FC378DAA952BA7F163C4A11628F55A4DF523B3EF DUP4 PUSH1 0x40 MLOAD DUP1 DUP3 DUP2 MSTORE PUSH1 0x20 ADD SWAP2 POP POP PUSH1 0x40 MLOAD DUP1 SWAP2 SUB SWAP1 LOG3 POP POP JUMP JUMPDEST PUSH2 0x95C PUSH1 0x3 DUP3 PUSH4 0xFFFFFFFF PUSH2 0xA32 AND JUMP JUMPDEST DUP1 PUSH1 0x1 PUSH1 0xA0 PUSH1 0x2 EXP SUB AND PUSH32 0x6AE172837EA30B801FBFCDD4108AA1D5BF8FF775444FD70256B44E6BF3DFC3F6 PUSH1 0x40 MLOAD PUSH1 0x40 MLOAD DUP1 SWAP2 SUB SWAP1 LOG2 POP JUMP JUMPDEST PUSH2 0x9A6 PUSH1 0x3 DUP3 PUSH4 0xFFFFFFFF PUSH2 0xA98 AND JUMP JUMPDEST DUP1 PUSH1 0x1 PUSH1 0xA0 PUSH1 0x2 EXP SUB AND PUSH32 0xE94479A9F7E1952CC78F2D6BAAB678ADC1B772D936C6583DEF489E524CB66692 PUSH1 0x40 MLOAD PUSH1 0x40 MLOAD DUP1 SWAP2 SUB SWAP1 LOG2 POP JUMP JUMPDEST PUSH1 0x0 DUP1 PUSH1 0x1 PUSH1 0xA0 PUSH1 0x2 EXP SUB AND DUP3 PUSH1 0x1 PUSH1 0xA0 PUSH1 0x2 EXP SUB AND EQ ISZERO ISZERO ISZERO PUSH2 0xA02 JUMPI PUSH1 0x0 DUP1 REVERT JUMPDEST POP PUSH1 0x1 PUSH1 0xA0 PUSH1 0x2 EXP SUB SWAP1 DUP2 AND AND PUSH1 0x0 SWAP1 DUP2 MSTORE SWAP1 DUP2 ADD PUSH1 0x20 DUP1 DUP4 ADD SWAP2 DUP3 MSTORE ADD DUP2 KECCAK256 SLOAD PUSH1 0xFF PUSH2 0x100 SWAP3 SWAP1 SWAP3 EXP SWAP1 DIV AND SWAP1 JUMP JUMPDEST PUSH1 0x0 PUSH1 0x1 PUSH1 0xA0 PUSH1 0x2 EXP SUB AND DUP2 PUSH1 0x1 PUSH1 0xA0 PUSH1 0x2 EXP SUB AND EQ ISZERO ISZERO ISZERO PUSH2 0xA54 JUMPI PUSH1 0x0 DUP1 REVERT JUMPDEST PUSH1 0x1 DUP3 PUSH1 0x0 ADD PUSH1 0x0 DUP4 PUSH1 0x1 PUSH1 0xA0 PUSH1 0x2 EXP SUB AND PUSH1 0x1 PUSH1 0xA0 PUSH1 0x2 EXP SUB AND DUP2 MSTORE PUSH1 0x20 ADD SWAP1 DUP2 MSTORE PUSH1 0x20 ADD PUSH1 0x0 KECCAK256 PUSH1 0x0 PUSH2 0x100 EXP DUP2 SLOAD DUP2 PUSH1 0xFF MUL NOT AND SWAP1 DUP4 ISZERO ISZERO MUL OR SWAP1 SSTORE POP POP POP JUMP JUMPDEST PUSH1 0x0 PUSH1 0x1 PUSH1 0xA0 PUSH1 0x2 EXP SUB AND DUP2 PUSH1 0x1 PUSH1 0xA0 PUSH1 0x2 EXP SUB AND EQ ISZERO ISZERO ISZERO PUSH2 0xABA JUMPI PUSH1 0x0 DUP1 REVERT JUMPDEST PUSH1 0x0 DUP3 PUSH1 0x0 ADD PUSH1 0x0 DUP4 PUSH1 0x1 PUSH1 0xA0 PUSH1 0x2 EXP SUB AND PUSH1 0x1 PUSH1 0xA0 PUSH1 0x2 EXP SUB AND DUP2 MSTORE PUSH1 0x20 ADD SWAP1 DUP2 MSTORE PUSH1 0x20 ADD PUSH1 0x0 KECCAK256 PUSH1 0x0 PUSH2 0x100 EXP DUP2 SLOAD DUP2 PUSH1 0xFF MUL NOT AND SWAP1 DUP4 ISZERO ISZERO MUL OR SWAP1 SSTORE POP POP POP JUMP STOP LOG1 PUSH6 0x627A7A723058 KECCAK256 SLOAD 0xaf 0x3f PUSH30 0xD14E238D99CA6AC5961550E6D8A484D837DB2D08699974906CE5C15F0029 "
		},
		"gasEstimates": {
			"creation": {
				"codeDepositCost": "571600",
				"executionCost": "infinite",
				"totalCost": "infinite"
			},
			"external": {
				"": "infinite",
				"addMinter(address)": "infinite",
				"allowance(address,address)": "infinite",
				"approve(address,uint256)": "infinite",
				"balanceOf(address)": "infinite",
				"currBallot()": "infinite",
				"decreaseAllowance(address,uint256)": "infinite",
				"increaseAllowance(address,uint256)": "infinite",
				"isMinter(address)": "infinite",
				"mint(address,uint256)": "infinite",
				"prevWinners(uint256)": "infinite",
				"renounceMinter()": "infinite",
				"totalSupply()": "infinite",
				"transfer(address,uint256)": "infinite",
				"transferFrom(address,address,uint256)": "infinite"
			}
		},
		"methodIdentifiers": {
			"addMinter(address)": "983b2d56",
			"allowance(address,address)": "dd62ed3e",
			"approve(address,uint256)": "095ea7b3",
			"balanceOf(address)": "70a08231",
			"currBallot()": "2b1ba9f8",
			"decreaseAllowance(address,uint256)": "a457c2d7",
			"increaseAllowance(address,uint256)": "39509351",
			"isMinter(address)": "aa271e1a",
			"mint(address,uint256)": "40c10f19",
			"prevWinners(uint256)": "8e2ea3aa",
			"renounceMinter()": "98650275",
			"totalSupply()": "18160ddd",
			"transfer(address,uint256)": "a9059cbb",
			"transferFrom(address,address,uint256)": "23b872dd"
		}
	},
	"abi": [
		{
			"constant": false,
			"inputs": [
				{
					"name": "spender",
					"type": "address"
				},
				{
					"name": "value",
					"type": "uint256"
				}
			],
			"name": "approve",
			"outputs": [
				{
					"name": "",
					"type": "bool"
				}
			],
			"payable": false,
			"stateMutability": "nonpayable",
			"type": "function"
		},
		{
			"constant": true,
			"inputs": [],
			"name": "totalSupply",
			"outputs": [
				{
					"name": "",
					"type": "uint256"
				}
			],
			"payable": false,
			"stateMutability": "view",
			"type": "function"
		},
		{
			"constant": false,
			"inputs": [
				{
					"name": "from",
					"type": "address"
				},
				{
					"name": "to",
					"type": "address"
				},
				{
					"name": "value",
					"type": "uint256"
				}
			],
			"name": "transferFrom",
			"outputs": [
				{
					"name": "",
					"type": "bool"
				}
			],
			"payable": false,
			"stateMutability": "nonpayable",
			"type": "function"
		},
		{
			"constant": true,
			"inputs": [],
			"name": "currBallot",
			"outputs": [
				{
					"name": "",
					"type": "address"
				}
			],
			"payable": false,
			"stateMutability": "view",
			"type": "function"
		},
		{
			"constant": false,
			"inputs": [
				{
					"name": "spender",
					"type": "address"
				},
				{
					"name": "addedValue",
					"type": "uint256"
				}
			],
			"name": "increaseAllowance",
			"outputs": [
				{
					"name": "",
					"type": "bool"
				}
			],
			"payable": false,
			"stateMutability": "nonpayable",
			"type": "function"
		},
		{
			"constant": false,
			"inputs": [
				{
					"name": "to",
					"type": "address"
				},
				{
					"name": "value",
					"type": "uint256"
				}
			],
			"name": "mint",
			"outputs": [
				{
					"name": "",
					"type": "bool"
				}
			],
			"payable": false,
			"stateMutability": "nonpayable",
			"type": "function"
		},
		{
			"constant": true,
			"inputs": [
				{
					"name": "owner",
					"type": "address"
				}
			],
			"name": "balanceOf",
			"outputs": [
				{
					"name": "",
					"type": "uint256"
				}
			],
			"payable": false,
			"stateMutability": "view",
			"type": "function"
		},
		{
			"constant": true,
			"inputs": [
				{
					"name": "",
					"type": "uint256"
				}
			],
			"name": "prevWinners",
			"outputs": [
				{
					"name": "",
					"type": "address"
				}
			],
			"payable": false,
			"stateMutability": "view",
			"type": "function"
		},
		{
			"constant": false,
			"inputs": [
				{
					"name": "account",
					"type": "address"
				}
			],
			"name": "addMinter",
			"outputs": [],
			"payable": false,
			"stateMutability": "nonpayable",
			"type": "function"
		},
		{
			"constant": false,
			"inputs": [],
			"name": "renounceMinter",
			"outputs": [],
			"payable": false,
			"stateMutability": "nonpayable",
			"type": "function"
		},
		{
			"constant": false,
			"inputs": [
				{
					"name": "spender",
					"type": "address"
				},
				{
					"name": "subtractedValue",
					"type": "uint256"
				}
			],
			"name": "decreaseAllowance",
			"outputs": [
				{
					"name": "",
					"type": "bool"
				}
			],
			"payable": false,
			"stateMutability": "nonpayable",
			"type": "function"
		},
		{
			"constant": false,
			"inputs": [
				{
					"name": "to",
					"type": "address"
				},
				{
					"name": "value",
					"type": "uint256"
				}
			],
			"name": "transfer",
			"outputs": [
				{
					"name": "",
					"type": "bool"
				}
			],
			"payable": false,
			"stateMutability": "nonpayable",
			"type": "function"
		},
		{
			"constant": true,
			"inputs": [
				{
					"name": "account",
					"type": "address"
				}
			],
			"name": "isMinter",
			"outputs": [
				{
					"name": "",
					"type": "bool"
				}
			],
			"payable": false,
			"stateMutability": "view",
			"type": "function"
		},
		{
			"constant": true,
			"inputs": [
				{
					"name": "owner",
					"type": "address"
				},
				{
					"name": "spender",
					"type": "address"
				}
			],
			"name": "allowance",
			"outputs": [
				{
					"name": "",
					"type": "uint256"
				}
			],
			"payable": false,
			"stateMutability": "view",
			"type": "function"
		},
		{
			"inputs": [
				{
					"name": "_proxied",
					"type": "address"
				},
				{
					"name": "_ballotMaster",
					"type": "address"
				}
			],
			"payable": false,
			"stateMutability": "nonpayable",
			"type": "constructor"
		},
		{
			"payable": true,
			"stateMutability": "payable",
			"type": "fallback"
		},
		{
			"anonymous": false,
			"inputs": [
				{
					"indexed": false,
					"name": "_msg",
					"type": "string"
				}
			],
			"name": "log",
			"type": "event"
		},
		{
			"anonymous": false,
			"inputs": [
				{
					"indexed": false,
					"name": "_win",
					"type": "address"
				}
			],
			"name": "winLog",
			"type": "event"
		},
		{
			"anonymous": false,
			"inputs": [
				{
					"indexed": false,
					"name": "_addr",
					"type": "address"
				}
			],
			"name": "newBallot",
			"type": "event"
		},
		{
			"anonymous": false,
			"inputs": [
				{
					"indexed": true,
					"name": "account",
					"type": "address"
				}
			],
			"name": "MinterAdded",
			"type": "event"
		},
		{
			"anonymous": false,
			"inputs": [
				{
					"indexed": true,
					"name": "account",
					"type": "address"
				}
			],
			"name": "MinterRemoved",
			"type": "event"
		},
		{
			"anonymous": false,
			"inputs": [
				{
					"indexed": true,
					"name": "from",
					"type": "address"
				},
				{
					"indexed": true,
					"name": "to",
					"type": "address"
				},
				{
					"indexed": false,
					"name": "value",
					"type": "uint256"
				}
			],
			"name": "Transfer",
			"type": "event"
		},
		{
			"anonymous": false,
			"inputs": [
				{
					"indexed": true,
					"name": "owner",
					"type": "address"
				},
				{
					"indexed": true,
					"name": "spender",
					"type": "address"
				},
				{
					"indexed": false,
					"name": "value",
					"type": "uint256"
				}
			],
			"name": "Approval",
			"type": "event"
		}
	]
}